:020000040800F2
:10000000D0270020B9390008B9380008BB380008EB
:10001000BD380008BF380008C138000800000000E3
:100020000000000000000000000000006710000851
:10003000C3380008000000002110000895230008C4
:10004000E5390008E9390008ED390008F139000800
:10005000F5390008F9390008FD390008013A0008AF
:10006000053A0008093A00080D3A0008C5380008AA
:10007000113A0008153A0008193A00081D3A00081C
:10008000CB380008213A0008253A0008293A000830
:100090002D3A0008313A0008353A0008393A00088C
:1000A0003D3A0008413A0008453A0008493A00083C
:1000B0004D3A0008513A0008D1380008553A000876
:1000C000593A00085D3A0008613A0008653A0008AC
:1000D000693A00086D3A0008713A0008753A00085C
:1000E000793A00087D3A0008813A0008F0B585B0F9
:1000F00050260B9D25B986F3118800F047FAFEE7DC
:100100000C9C24B986F3118800F040FAFEE75C27C6
:100110000097DDF800E0BEF15C0F04D086F3118893
:1001200000F034FAFEE7009E25630027022584F8DC
:10013000595004AE0A9D039702940196009500F071
:1001400034F8204600F079F8049805B0F0BD2DE9A8
:10015000F8430646174684B088469946B80000F032
:1001600073FB04001CD05C2000F06EFB050014D073
:1001700000212C6385F85910039102950D990C9874
:10018000019100904B463A464146304600F00DF84A
:10019000284600F052F8012004E0204600F0DCFB85
:1001A0004FF0FF3005B0BDE8F0832DE9F0470A9E1F
:1001B00080460C461546306B9946A522A90000F0F2
:1001C0001BFC316B01EB8502101FC0084FEAC00A0F
:1001D0000AF0070006F1340554B10021625C6A544C
:1001E000605C10B1491C1029F8D30021E97300E0CC
:1001F0002870089F372F88BF3727099CF762AF61A7
:100200000020E861C7F13807301D00F01FFC06F13F
:10021000180000F01BFC3661B7617662002028628E
:10022000002186F858104A464146504600F068FCC6
:10023000306004B12660BDE8F0872DE9F04100F0A0
:1002400068F8DFF80C55DFF86C85E86C401CE86452
:100250001426A86A28BBAC62E86C012829D10027C3
:1002600006FB07F0404400F0E4FB7F1C382FF7D377
:1002700005F1740000F0DDFB05F18807384600F059
:10028000D8FB284600F0D5FB05F1140000F0D1FBA7
:1002900005F1380000F0CDFB05F17400E8622F6332
:1002A00007E0A86D28B9E06AAA6AD16A884228BF27
:1002B000AC62AA6EE06A521C6264696D814238BF0A
:1002C0006865AA664643211D08EB060000F0C1FBE5
:1002D00000F087FCA86D20B100F09EF901D200F07B
:1002E00050F9BDE8F08180B580B1DFF86424116F6A
:1002F00021B100F02FF900F049F9FEE7136F5B1C04
:10030000136700F06BFA00F044F808B900F039F90F
:1003100001BD044600F04CBC80B586B000210591BB
:10032000049103AA04A905A800F0B0FC059A049959
:1003300002920020019100900023039A0FF20051D5
:100340000FF26930FFF7D2FE98B100F0A9FC5021FE
:10035000012810D181F3118800F018F9DFF8CC04DE
:100360004FF0FF31C166012282650021016500F076
:10037000E5FB07B000BD10F1010FFAD181F3118840
:1003800000F004F9FEE7DFF8A414086F401C0867CA
:10039000704770B5DFF8B863306F0024002520B9CE
:1003A00000F043F800F0F2F8FEE700F001FC306FD7
:1003B000401E3067306F002836D1F06CD0B933E082
:1003C000F068C46800F035F800F0C4F9E36A706DB5
:1003D000984238BF73651422DFF854045343211D3B
:1003E000184400F036FBE06AB26AD16A884224BF42
:1003F0000122326630680028E2D10CB100F08DF99C
:10040000F46D44B100F01DF808B101203066641E9F
:10041000F8D10020F065306E30B1DFF818044FF0ED
:100420008051012500F0B1F8CEE1502181F311880F
:10043000704704F1180000F032BBDFF8F003006DE4
:1004400070472DE9F843DFF80863306F0025002876
:1004500052D1346D641C346510D1F06A006820B14B
:10046000FFF7E3FF00F092F8FEE7F16A306BF0620D
:100470003163706E401C706600F04FF9F06EDFF86B
:10048000B08384424FF0140927D31FE0F16AC86893
:10049000C768786884422DD3381D00F000FBB86A25
:1004A00018B107F1180000F0FAFAF86A716D81428C
:1004B00038BF706509FB00F0391D404400F0C9FAEF
:1004C000F86AB26AD16A884228BF0125F06A0068DA
:1004D0000028DBD14FF0FF31F166B06AC06A09FB3A
:1004E00000F958F80910022928BF0125306E30B1F3
:1004F000012504E0F066F0E7F06D401CF065284649
:10050000BDE8F28310B5DFF84822106F10B1012169
:10051000116610BD1066DFF81843506D00E0401EF4
:1005200014234343E15831B90028F8D100F012F800
:1005300000F02CF8FEE7E1184B685C684C6001F1B4
:1005400008039C4204BF64684C604B68D9689162A0
:10055000506510BD502080F31188704710B50C46CF
:1005600020B9FFF7F7FF00F011F8FEE700F028F8D8
:1005700000F07CFA2046BDE81040FFE7012100F0C2
:100580002DB9DFF8B0024FF080510160BFF34F8FFB
:10059000BFF36F8F704738B50D46144620B9FFF78B
:1005A000D9FFFFF7F3FFFEE700F00AF800F051FA79
:1005B0000CB14FF0FF3521462846BDE834400DE12F
:1005C000DFF868329A6A02F11801704738B5C068DE
:1005D000C46824B9FFF7BEFFFFF7D8FFFEE7FFF7B7
:1005E00028FFDFF84852286F40B900F0B3F800F058
:1005F00018F838BF6A6500F0EBF802E004F1180162
:10060000284600F026FA00F007F803D201212966F7
:10061000012032BD002032BDA96AE26AC86A904258
:100620007047E26A686D90427047DFF80022516EB1
:100630000160126D42607047F8B504460D465020C7
:1006400024B980F31188FFF7A1FFFEE725B980F3F5
:100650001188FFF79BFFFEE700F0AAFADFF8CC0154
:10066000D0F850C02B68616813F1010FACEB0102A8
:100670000DD0466E2768BE4201D08C450BD29A42FF
:1006800007D29A1A2A60416E2160006D60600024D2
:1006900002E000202860012400F0A3FA2046F2BD09
:1006A000DFF88801012101667047000070B5414CF8
:1006B000DFF8785111E000F07BFA286AC668301D37
:1006C00000F0EDF9E86C401EE864686B401E68635A
:1006D00000F087FA304600F009F8686B0028EAD18C
:1006E0002268022AF9D3FFF74CFFF6E710B504465B
:1006F00094F8590040B9206B00F02EF92046BDE86F
:10070000104000F029B910BD0128F7D00228FAD016
:10071000FFF720FFFFF73AFFFEE70D49C86A0068C0
:1007200018B94FF0FF32CA667047CA6AD068C2680B
:100730005068C8667047DFF8F410886D08B901206A
:100740007047086F08B9022070470020704700000A
:10075000B4200020201D00F0A2B938B504460021C5
:1007600034B3DFF8C850A86A5022844204D082F320
:100770001188FFF70BFFFEE7206D20B982F3118887
:10078000FFF704FFFEE7E36AE26C401E9342206538
:100790000ED068B9FFF7DEFFE26CE262C2F1380109
:1007A000A161686D904238BF6A6500F005F80121CB
:1007B000084632BD701400201420DFF87430424324
:1007C000211D981800F045B900F00BFA284670BDBD
:1007D0001420174B4243211D98187047F8B5134E4B
:1007E000376D0C46B16A0546081D00F058F915F141
:1007F000010F05D124B1B06A011D06F138001BE0DC
:10080000B06AED194560BD42B06A05D2011D306B7A
:10081000BDE8F44000F02AB9011DF06A00F026F9A5
:10082000F06E854238BFF566F1BD0000B4200020AF
:100830007014002004ED00E0BDE8F44000F009B9B8
:1008400049444C45000000002DE9F8430446FFF7F9
:100850009AFD684FB8684FF00008002508BB07F103
:10086000200307F1200013F0070F4FF4A0520146B8
:1008700005D0C11DC908C900C1F5A053C21852183E
:10088000083AD208D20039607D60BA6055601560C0
:10089000501A48600A6048683861F8604FF00040BC
:1008A000F8614FF05009F869044245D1002C43D05B
:1008B000083414F0070F04D004F1080104F0070015
:1008C0000C1A002C38D0F868A04235D33E6839465F
:1008D00001E0314606467068A04202D23068002826
:1008E000F7D1B868864227D00A683068086002F1FC
:1008F00008087268121B112A0CD3311911F0070075
:1009000002D000F022F8FEE7301D02517460084664
:1009100000F04CF87168F8683A69401AF860904243
:1009200088BF10463861F86901437160356008F08E
:1009300007057869401C7861FFF72BFD15B100F0C1
:1009400004F8FEE74046BDE8F28389F31188BFF35F
:100950004F8FBFF36F8F7047002800D1704738B5B5
:10096000A0F10804234D6368E96950220B4204D1C9
:1009700082F31188FFF7EBFFFEE7206820B182F3D6
:100980001188FFF7E4FFFEE78B436360FFF7FBFC92
:10099000E96860684118E960204600F007F8A86936
:1009A000401CA861BDE83140FFF7F3BC30B51149E8
:1009B0000A4600E01A4613688342FBD35368D418F2
:1009C000844203D14068C3185360104643681468DA
:1009D000C518A54208D189688C4204D06168CB183B
:1009E0004360246800E00C460460824218BF106037
:1009F00030BD00005000002062F30F2262F31F425E
:100A000000B500BF130096469446103928BFA0E8F1
:100A10000C50FAD85FEA417C28BF0CC048BF40F8B0
:100A2000042BC90728BF20F8022B48BF00F8012B70
:100A300000BD4FF0FF3200F1080182604160C160EB
:100A400000F108020261002101607047002101618C
:100A5000704710B542684A6094688C60936859602A
:100A6000916008610168491C016010BD30B50D68D6
:100A700015F1010F08BF046907D000F1080400E078
:100A80001C4663681A689542FAD262684A609160AF
:100A90008C60616008610168491C016030BD10B55F
:100AA00042680169836893608268436853604C6858
:100AB000844204BF83684B60002202610868401EC4
:100AC0000860086810BD30B5016884684218416844
:100AD00002EB5103C90703D54C4401E0491C08D17E
:100AE0009A4218BF12F9011B01D10C3030BD12F827
:100AF000015B002904F8015BF0D4491EF7D5EFE74C
:100B0000490810B54900A0F10C034FF080745960FA
:100B10009C600FF20D01196040F8202D203810BDA7
:100B2000544A5168502011F1010F80F31188BFF32E
:100B30004F8FBFF36F8F00D0FEE7FEE71CB54E4925
:100B40004C4C08780190FF230B7007200A788DF831
:100B500000209DF8002002F05002227005E09DF870
:100B600000205200401E8DF800209DF800301A062B
:100B7000F5D4424212F1030F03D0A06000F050F808
:100B8000FEE7000200F4E060A060019808703B48B6
:100B9000026842F470020260016841F07041016035
:100BA00000F02AFA0020606000F06DFA002016BD07
:100BB000502080F31188BFF34F8FBFF36F8F2D4A02
:100BC0005168491C012951600AD12D4B1A68110640
:100BD00006D080F31188BFF34F8FBFF36F8FFEE70E
:100BE00070472449486838B9502080F31188BFF312
:100BF0004F8FBFF36F8FFEE7401E486008BF80F342
:100C00001188704780B500F00BF8FFF71AFC18B197
:100C10001B484FF080510160002282F3118801BD12
:100C2000502080F31188BFF34F8FBFF36F8F704751
:100C3000EFF305825020102A0E490BD3114B9B5C19
:100C40000A78934206D280F31188BFF34F8FBFF327
:100C50006F8FFEE789680C4B1A6802F4E0629142DC
:100C600006D280F31188BFF34F8FBFF36F8FFEE77B
:100C7000704700003400002000E400E020ED00E0B8
:100C800004ED00E0F0E300E00CED00E0034B036056
:100C900003F15C0008608021116070472C1D00206A
:100CA00010B586B000F074F9DFF83443A068C0B125
:100CB00000220592049204A903AA05A800F0F4F901
:100CC000059A049902920220019100900023039A50
:100CD0000FF214310FF28100FFF708FA0028E060EC
:100CE00005D1502181F3118800F00AF8FEE70120B8
:100CF00006B010BD2046BDE8F681502080F3118873
:100D0000BFF34F8FBFF36F8F7047F8B5044684B0C1
:100D10001E46002014B9FFF7F0FFFEE7DFF8C072AF
:100D2000BD68BDB106290091019202940CDAFFF76B
:100D300002FD022807BF0A9A002300230022B86898
:100D4000694600F03FFA05E000233246694628462E
:100D500000F0CFFA05B0F0BDF8B586B0DFF88052EC
:100D60002968086810B90124002602E0C8680668EE
:100D70000024FFF708FB01A800F0B4F8074601982B
:100D800000283FD154BBB7422DD3FFF702FB29689F
:100D9000C868C468201DFFF782FE94F82810480731
:100DA00017D5A16933463A468919204600F0D6F88E
:100DB00040B1002000900023324600212046FFF77A
:100DC000A4FF18B1216A2046884725E0FFF795FF68
:100DD000FEE701F0FE0184F82810F3E76868016877
:100DE0004C1EA441E40FA8682246F11B00F002FC4F
:100DF000FFF7CFFA80B97B484FF080510160FFF7D1
:100E00007FFF09E0FFF7C5FA06E094F8281088078D
:100E10003BD42046FFF7A0FDA868002202A900F0FD
:100E2000B1FA00289CD00298002803D505990498AF
:100E3000039A904702980028EED4049C606910B190
:100E4000201DFFF72CFE01A800F04CF8029909299B
:100E5000E2D8DFE801F02121211A070621211A0733
:100E6000DAE7D2E794F8282042F0010284F828203B
:100E70000399A16131B1034602460918204600F0EA
:100E80006DF8C9E7FFF739FFFEE794F8280000F096
:100E9000FE0084F82800BFE794F8281041F0010113
:100EA00084F8281002460399A0690B464118204691
:100EB00000F054F80028AFD0216A2046884794F803
:100EC00028004107A8D5002000900023039AA069BC
:100ED000821800212046FFF718FF00289CD1FFF759
:100EE0000CFFFEE72DE9FC4106463D4DFFF7A5FA54
:100EF000296904468C4209D3002030602C61F9E650
:100F000078603F61391D2868FFF7B0FD29680868DF
:100F1000F0B1C868D0F80080C768381DFFF7BFFD82
:100F2000396A3846884797F828205007EED5B869BF
:100F300040448045E4D30020009000234246002135
:100F40003846FFF7E2FE0028E0D1FFF7D6FEFEE7C5
:100F500068686960286001213160CFE738B50024F6
:100F60008A42416000611E4D06D38169D21A8A42CD
:100F700006D2011D686807E09A4203D2994201D364
:100F8000012403E0011D2868FFF770FD204632BDF3
:100F90001CB5FFF70DFE124CA068E0B904F1140077
:100FA000FFF747FD04F12800FFF743FD04F11402A9
:100FB00004F12801002022606160009004F13C03EC
:100FC00004F18C0210210A2000F0B3F8A06010B1E7
:100FD00007A100F0FBFABDE81340FFF702BE0000D6
:100FE000881F002004ED00E0546D722053766300EA
:100FF000546D7251000000000748084B0022026047
:10100000002181604FF47A711A68B2FBF1F1491E38
:10101000416007220260704710E000E04C000020B1
:10102000EFF30980BFF36F8F1D4B1A6820E9F00FB3
:10103000106008B54FF0500080F31188BFF34F8F58
:10104000BFF36F8FFFF75EFA4FF0000080F3118857
:10105000BDE8084019680868B0E8F00F80F3098817
:10106000BFF36F8F70470E4B19680868B0E8F00F38
:1010700080F30988BFF36F8F4FF0000080F3118871
:101080004EF00D0E704707480068006880F308882E
:1010900062B661B6BFF34F8FBFF36F8F00DF000002
:1010A000DC20002008ED00E0044B036003F15C004D
:1010B00008604FF480711160704700BFD0180020A5
:1010C00070B504000D4602D100F074F8FEE7FFF79A
:1010D0006FFD206CE16B226800FB01F6491E48435E
:1010E00016441044A6600023A363E06004F14401A9
:1010F00062604FF0FF300870487075B92069A0B188
:1011000004F11000FFF762FA78B1DFF8E0044FF065
:101110008051016000F0BAF907E004F11000FFF718
:1011200088FC04F12400FFF784FCFFF75AFD01203E
:1011300070BD7CB51C46502320B983F3118800F0A4
:10114000A5F9FEE724B983F3118800F09FF9FEE7C3
:101150002AB129B983F3118800F098F9FEE779B92B
:1011600050250095009E502E0FD1009B34B1069B58
:10117000012584F84650009400F00CF8204676BD16
:1011800083F3118800F082F9FEE783F3118800F001
:101190007DF9FEE738B5049C1D4600290CBF24608C
:1011A0002260E063216420460121FFF789FF84F873
:1011B0004C5031BD502080F31188BFF34F8FBFF3E7
:1011C0006F8F70472DE9F64782B004461E465027C0
:1011D00014B900F059F9FEE75FEA010A01D1206C69
:1011E00060B9022E02D1E06B01280AD1FFF7A3FA01
:1011F00050B9039840B100F047F9FEE700F044F918
:10120000FEE700F041F9FEE7274600244FF0805842
:10121000DFF8D8932EE0039800284BD014B900F0E3
:1012200041F90124FFF7DDFCFFF7ADF8FFF7C0FC43
:1012300007F1440000F039F904BF0021017000F00B
:1012400039F904BF00214170FFF7CBFC00F04DF8E5
:10125000002844D1FFF7ACFCB96BF86B814214BF96
:1012600000250125FFF7BDFC45BB384600F06FF9AE
:10127000FFF78FF8FFF79CFCB96BF86B814201D345
:10128000022EC8D132465146384600F018F9796A24
:1012900029B107F12400FFF799F908B904E018B162
:1012A000C9F8008000F0F2F8FFF79BFC012004B0C1
:1012B000BDE8F087FFF795FC0020F8E7039907F1F8
:1012C0001000FFF74BF9384600F041F9FFF761F8DD
:1012D0000028CFD1C9F8008000F0D8F8CAE7384616
:1012E00000F035F9FFF755F8E6E703A96846FFF780
:1012F000A3B92DE9F8430446884615461E465027F3
:1013000014B900F0C1F8FEE7B8F1000F01D1206C6C
:1013100040BB022E02D1E06B012826D1FFF788FCEA
:10132000EFF3118900F0B0F8A16BE06B814201D3BB
:10133000022E22D194F94570A06B324641462046D8
:1013400000F0BDF817F1010F12D1606A98B104F1F5
:101350002400FFF73BF9002818BF002D0BD0012017
:10136000286008E000F090F8FEE700F08DF8FEE756
:101370007F1C84F84570012000E0002089F311886B
:10138000BDE8F2832DE9F74306460F4600245025B9
:1013900026B985F3118800F079F8FEE70FB9306CB3
:1013A00048B9FFF7C8F978B9029868B185F3118890
:1013B00000F06CF8FEE785F3118800F067F8FEE7AF
:1013C00000F06EF8FEF7E5FFFFF7F2FBB56BDFF814
:1013D0001C92002D4FF0805832D10298002845D041
:1013E00014B900F05FF80124FFF7FBFBFEF7CBFF19
:1013F000FFF7DEFB06F14400425712F1010F04BF74
:101400000021017000F056F804BF00214170FFF781
:10141000E8FB02A9FFF76AFF002830462AD100F056
:10142000CAF80028CCD000F036F800F039F8FEF702
:10143000B0FF0028C8D1C9F8008000F027F8C3E742
:101440003946304600F06FF86D1EB563306940B123
:1014500006F11000FFF7BAF818B1C9F8008000F0E3
:1014600015F8FFF7BEFB0120BDE8FE83FFF7B9FBCF
:101470000020F9E700F06BF8FEF78BFF304600F034
:101480009AF80028A0D0F3E787F31188BFF34F8FB5
:10149000BFF36F8F7047029906F12400FFF75EB823
:1014A000304654E06846FFF7C0B890F9002012F1CA
:1014B000010F704790F9012012F1010F7047F8B544
:1014C00006461546B46B326C002742B9306830BB13
:1014D000B068FFF742F900210746B1601FE065B927
:1014E000706800F0ABF87168306C0844B1687060E7
:1014F000884214D33068706011E0F06800F09EF804
:10150000306CF26840420244F26031688A4202D292
:10151000B2681044F060022D01D104B1641E641C55
:10152000B4633846F2BD026C002A0B4600D1704706
:1015300010B5C46881681444C4608C4224BF046838
:10154000C460C168BDE81040184600F077B8F8B52F
:101550000546FFF72DFB05F1440494F9016007E00F
:1015600005F12400FFF732F808B1FFF799F8761E6D
:1015700070B2012802DB686A0028F1D14FF0FF3613
:101580006670FFF72EFBFFF713FB94F9007007E07E
:1015900005F11000FFF71AF808B1FFF781F87F1E78
:1015A00078B2012802DB28690028F1D12670BDE855
:1015B000F140FFF716BB10B50446FFF7F9FAA06B30
:1015C000441EA441FFF70DFBE00F10BD10B5002431
:1015D000074B53F834201AB1641C082CF9D310BD02
:1015E00043F8341003EBC401486010BD04ED00E083
:1015F000F8220020F8B504460D461646FFF7D8FA43
:1016000004F1380797F90C1011F1010F04BF002005
:10161000387397F90D1011F1010F04BF0020787392
:10162000FFF7DFFA386828B93246294604F124006A
:10163000FEF7B1FF2046BDE8F24088E74AB100005E
:1016400011F8013B521E00F8013B1CBF11F8013B91
:10165000F8E770472DE9F843040016D02078DFF84A
:101660009074C10713D5786800F00C00042807D0E7
:10167000786800F00C00082840D17968C8033DD58F
:101680003A68910303D56068002800F05B812078F8
:10169000DFF86C64810719D5786810F00C0F07D05B
:1016A000786800F00C0008285FD17868C1035CD42A
:1016B0003868810703D52069012840F043813968E3
:1016C000606921F0F80141EAC0013960217808071A
:1016D00078D5A069DFF82C14002800F09E80012244
:1016E0000A6000F027FA0546796A88075BD400F0A3
:1016F00021FA401B0228F7D9032026E16068B0F5E3
:10170000803F03D1386840F4803013E058B1B0F521
:10171000A02F08D1386840F4802038603A6842F43D
:1017200080323A6007E0396821F4803139603868E6
:1017300020F480203860606858B100F0FBF905465D
:1017400039688803A3D400F0F5F9401B6528F7D366
:10175000D2E700F0EFF905463968880397D500F025
:10176000E9F9401B6528F7D3C6E7206968B1012174
:10177000316000F0DFF90546386881079FD400F03A
:10178000D9F9401B0228F7D9B6E70022326000F0F1
:10179000D1F905463968880798D500F0CBF9401B88
:1017A0000228F7D9A8E7DFF84C231168C9084FF4DD
:1017B0007A70B1FBF0F0009000BF0098411E002845
:1017C0000091F9D1207841076ED5F9690025C8004C
:1017D00009D4F96941F08051F9610125F86900F0F7
:1017E000805000900098DFF82083D8F80000C105F1
:1017F00020D4D8F8000040F48070C8F8000000F051
:1018000099F98146D8F80010C80513D400F092F970
:10181000A0EB09006528F5D36EE7086000F08AF9AF
:101820000546796A8807CDD500F084F9401B022867
:10183000F7D961E7E068012808D008B9386A09E0FB
:101840000528386A06D140F004003862386A40F052
:10185000010005E0400840003862386A20F00400CA
:10186000386241F28938E06860B100F063F981467E
:10187000396A880713D400F05DF9A0EB09004045F0
:10188000F6D339E700F056F98146396A880706D55C
:1018900000F050F9A0EB09004045F6D32CE71DB14C
:1018A000F86920F08050F861E06900284CD0796830
:1018B00001F00C01082938D002282AD100F047F89D
:1018C00005463968880105D500F034F9401B022827
:1018D000F7D911E7206AB0F5803F05D17968A06893
:1018E00021F40031014379607A68206A616A22F448
:1018F000741202430A437A60012000F029F804467A
:101900003868810120D400F015F9001B0228F7D9AE
:10191000F2E600F01CF804463868810114D500F0A6
:1019200009F9001B0228F7D9E6E601280AD07868F1
:10193000226A00F48031914202BF00F47010616AA3
:10194000884201D0012000E00020BDE8F2830020A1
:10195000306600F0EFB82DE9F041040088465FD012
:101960006A4E306800F00700404509D23168C90866
:1019700048EAC1013160306800F0070040454FD1AE
:1019800021685B4D880712D5490703D5686840F484
:10199000E06068602078010703D5686840F4605013
:1019A00068606968A06821F0F001014369602178EE
:1019B000C80726D56068012802D129688A0303E098
:1019C000022803D129688A0103D429E02B689907EA
:1019D00026D56A68920840EA8200686000F0AAF89A
:1019E00007466868616800F00C00B0EB810F08D012
:1019F00000F0A0F8C01B41F289318842F1D30320E6
:101A000032E0316801F0070188450BD23068C00828
:101A100048EAC0003060316801F00701414501D05B
:101A2000012021E02178480705D56968E06821F4A4
:101A3000E0610143696021780A0706D56868216979
:101A400020F4605040EAC100686000F00FF86A6856
:101A50002F49C2F303128B5C2649D84008602748FF
:101A6000006800F06DF80020BDE8F08129492248A7
:101A70000A6802F00C03082B00D0704710B500BFB5
:101A800027A4C2F38343D203E35C08D50968584313
:101A900027A3C1F34041595CB0FBF1F010BD1E48D3
:101AA000584310BD13481B4B00681A681B49C2F30A
:101AB0000222FFE7895CC840704710B50F22026020
:101AC000144A136803F003034360146804F0F0043D
:101AD0008460136803F4E063C3601268D20802F400
:101AE000E0620261094A106800F00700086010BD5A
:101AF000001002404C00002000127A004800002034
:101B00000000424280044242007000400020024037
:101B1000983900080410024000093D00DC39000833
:101B200002030405060708090A0B0C0D0E0F10101E
:101B30000102000001484068704700BF40000020DB
:101B400078B50446204887B0016841F0040101607F
:101B500001A9006800F00400009002A8009AFFF7B5
:101B6000ACFF059810B9FFF79DFF02E0FFF79AFF61
:101B700040001649164D174B2B60B0FBF1F10020C9
:101B800040F2E732491E2861A860A861EA606960F6
:101B9000284600F023F8060012D1284600F02BF862
:101BA00006000DD11E2000F081F9102C07D2002272
:101BB00021461E2000F05BF90748046000E0012682
:101BC000304608B070BD00001C10024040420F00BB
:101BD00028220020000800404800002038B50400FA
:101BE00001D1012032BD00F04BF818B900F044F8E3
:101BF00000F070F92CE090F83D10012901D001208F
:101C00007047022180F83D100268D16841F001015F
:101C1000D160DFF874200168914218BFB1F1804FA4
:101C200007D0DFF8683099421CBFDFF8642091428A
:101C300006D1896801F00701062907D0026800E093
:101C40000A461168104641F001010160002070470A
:101C500002206870211D206800F0B4F80121A972EB
:101C60000120A870E97028716971A871E971287262
:101C700069726870002032BD0021297020467047CB
:101C800004F13C0568787047002C014000040040D6
:101C90000008004070B504462068C5680669B207B0
:101CA00014D5A90712D56FF0020202610121217734
:101CB000806910F0030F204602D000F00CF903E019
:101CC00000F00AF900F07BF800202077710715D5A5
:101CD000680713D520686FF00401016102222277A2
:101CE000806910F4407F204602D000F0F4F803E051
:101CF00000F0F2F800F063F800202077310715D5E6
:101D0000280713D520686FF00801016104222277AB
:101D1000C06910F0030F204602D000F0DCF803E0A9
:101D200000F0DAF800F04BF800202077F00615D527
:101D3000E90613D520686FF01002026108212177AF
:101D4000C06910F4407F204602D000F0C4F803E0E0
:101D500000F0C2F800F033F80020207706F001020E
:101D600005F001010A4206D021686FF001020A6104
:101D7000204600F00EF9300608D52A0606D5206860
:101D80006FF080010161204600F00EF9700608D561
:101D90006A0606D521686FF040000861204600F011
:101DA00004F9B0060AD5AA0608D521686FF020000C
:101DB00008612046BDE8704000F0F8B870BD2046CC
:101DC00000F0F5B870B50368194C1A4E1A4AA042D3
:101DD00018BFB0F1804F03D0904218BFB04209D174
:101DE00023F070054B682B43A0421CBFB0F1804F1D
:101DF000904201D0B04203D123F44072CB68134328
:101E00004A6923F0800313430360A0428B68C362D6
:101E10000A68826202D10A6908490A6001234361A3
:101E20000169CA0703D5016949084900016170BD0C
:101E3000002C01400008004000040040302C01400C
:101E40000A01010002D41F4B5A5470471E4801F08A
:101E50000F01014401F8042C70471C490A6860F323
:101E60000A2240F2FA5060F31F420A60704770B5D0
:101E7000164C2368C3F302230124C3F10705052D83
:101E80002FBF0F26C3F1070604FA06F6761E1D1DA6
:101E9000072D34BF0023DB1E3140994004FA03F3C1
:101EA000BDE870405B1E1A401143C9E7010007D42A
:101EB000012200F01F01064B8A40400943F8202010
:101EC0007047000000E400E018ED00E00CED00E0D9
:101ED00000E100E0704770477047000080B500F0F7
:101EE00067F800F013F800F075F800F0CBF800F098
:101EF000E9F800F073F900F087F900F0D9F900F083
:101F000056FA00F0DDFA00F061FAFEE700B593B092
:101F10002821002209A800F091FC14210022684623
:101F200000F08CFC1021002205A800F087FC102195
:101F30000E91012202210D920F9210910A20099018
:101F400000224FF460111192129109A8FFF782FB51
:101F500008B100F027F8022201920F200021009022
:101F600002914FF480620491039202216846FFF7C8
:101F7000F2FC08B100F016F802224FF4004105927D
:101F8000079105A800F064FC08B100F00BF813B04D
:101F900000BD01680248814208BF00F0CDBC704717
:101FA0000008004072B6FEE7704770477047704700
:101FB00080B50748016841F0100101600320FFF778
:101FC0004CFF0F20FFF7BCFD00F0BEFC002002BD5F
:101FD0000020024030B585B010210022684600F094
:101FE0002DFC2048204D0268204C42F00402026083
:101FF000016801F004010491049A016841F00801AC
:1020000001600022006800F0080004900621049896
:10201000284600F097FD00224FF48071204600F022
:1020200091FDF82000900022019200F026F8012096
:1020300000900022019200F01BF806200090012180
:10204000022001910022039000F012F811214FF4B8
:1020500080720191009202210022039100F00DF89C
:1020600005B030BD18100240000C014000080140CE
:1020700002926946284600F08DBC029269462046CD
:1020800000F088BC80B50E48016841F00101016094
:102090000022006800F0010000900521009B0B2049
:1020A000FFF7E5FE0B20FFF701FF002205211020BE
:1020B000FFF7DDFEBDE802401020FFF7F7BE00BFCE
:1020C000141002401FB500210091019102910020DF
:1020D0004FF480713B4C3C4AA16020730021217574
:1020E00061604FF46020E06103212260216120469D
:1020F00000F046FD08B1FFF755FF002007210090D2
:102100000122029101926946204600F062FE08B168
:10211000FFF748FF0120022100F00BF808B1FFF79C
:1021200041FF0220032100F004F808B1FFF73AFF55
:102130001FBD009001912046694600F04ABE30B5AF
:1021400085B004461021002201A800F077FB236827
:102150001D498B4234D11D481D4D026842F4007266
:102160000260016801F400710091009A016841F079
:10217000040101600321006800F0040000900720C2
:10218000009A0190029101A9124800F003FC00207E
:102190006860A8604FF480718020E86029614FF486
:1021A0008060686100200C4AE86120212A60A961F2
:1021B000284600F02FFF08B1FFF7F4FE25626C629D
:1021C00005B030BD38230020002401401810024023
:1021D00070220020000801400800024080B5084835
:1021E000084B032240F6FF7103604260816001F0FA
:1021F0006EF818B1BDE80140FFF7D4BE01BD00BFC5
:10220000BC2300200030004080B52548254B10211C
:102210000022036041608260C260026142618261AB
:10222000828301F085F818B1BDE80140FFF7BABE1E
:1022300001BD18B585B0044610210022684600F0A3
:10224000FDFA236817498B4228D11748174C41687B
:1022500041F000714160416801F000710491049AFD
:10226000016841F0040101600022006800F00400F0
:1022700004904FF400600499009001920292694624
:10228000204600F087FB4FF480500321009002228B
:10229000039101926946204600F07CFB06B010BD18
:1022A000682300200064004018100240000801402C
:1022B000304A3148314B002180B5426081600022B4
:1022C0004FF480410360C260016142618261C2617A
:1022D000026201F0C1F818B1BDE80140FFF762BE2B
:1022E00001BD30B585B004461021002201A800F0E0
:1022F000A5FA2168214A914239D1214D296841F03E
:10230000080129601222286800F0080000904FF4AC
:1023100040700099019003210491029201A919488B
:1023200000F038FB1849194A086840F0E06040F0B6
:1023300002000860686840F4001068606868144D26
:1023400000F40010009010200099686000218020A7
:10235000E8602A60A96029616961A961E96128468C
:1023600000F058FE08B1FFF71DFE65636C6205B012
:1023700030BD0000A0860100D421002000540040A0
:1023800018100240000C0140040001406C000240A3
:10239000B422002080B5DFF81C110868FEF7CBF9E5
:1023A000012803D0BDE80140FEF72CBC01BDEFF3CE
:1023B000058000B16EE0DFF80011086810B9012255
:1023C0000A6070474FF0FF307047000080B5EFF3B0
:1023D000058000B10FE0DFF8E0000168012909D1B4
:1023E000DFF8D81000220A7002230360FDF794FF83
:1023F000002002BD02E06FF0050002BD4FF0FF308B
:1024000002BDF8B584B000230393EFF30583002BDE
:102410003DD103003BD08025182600245AB3136811
:1024200003B11C4693691BB11E0004D0392E02D2A1
:102430001779FB0701D500202AE0536903B19D08F5
:10244000D2F80CC0976887B1BCF15C0F1FD312693A
:10245000002A18BF002B1AD001920B460297009653
:102460002A462146FDF742FE10E0BCF1000F04BFF2
:102470001269002A0BD103AB019300960B46AAB256
:102480002146FDF764FE012801D000200390039847
:1024900005B0F0BD6FF00500704710B5EFF3058192
:1024A00011B16FF0050403E0002408B1FDF71BFF34
:1024B000204610BD10E000E0C82300201FED00E022
:1024C00038B5DFF840430FF2350022460021DFF82F
:1024D0003853FFF796FF286004F1240200210FF221
:1024E0001910FFF78EFF686004F1480200210FF217
:1024F0001510FFF786FFA86031BD00002DE9F041FF
:10250000DFF80873DFF80843DFF80853DFF80863E3
:10251000DFF8088304E018B10020387600F0F5F801
:10252000404600F02CFC032206F13001404600F04A
:10253000A1FB0A20FFF7B1FF00F035F9318D06F15C
:10254000100000F0A7F8718D06F11C0000F0A2F851
:10255000B18D301D00F09EF8284600F0E3FE082201
:10256000214607F1100000F079F81022214607F10A
:10257000080000F073F820222146384600F06EF87B
:102580008022214607F1240000F068F80122A449C6
:1025900007F12C0000F062F84022214607F11C00F0
:1025A00000F05CF8B87A08B101213170B87808B150
:1025B00002213170B87C08B10321317040F2E93159
:1025C0003A8C387E8A42A6DB50B1318D06F110007C
:1025D00000F07BF8718D06F11C0000F076F89FE7A3
:1025E0000120387606F1100000F07EF806F11C009C
:1025F00000F07AF894E7000080B56420FFF74DFF03
:10260000FBE7000070B50026854C834D08E0E6B975
:102610000126002200F01EF83246022100F01BF8CD
:1026200040F24D10FFF739FF28780328F8D8DFE88B
:1026300000F00C04030BF3E7E9E736B9012200F0E0
:1026400009F801260022E8E70EB10026E1E701269D
:102650000122DFE70421204600F074BA10B50446D9
:10266000084623786370114600F066FAA18820704E
:102670006278824209D1E378984206D001234FF66E
:10268000FE72914203DA491C01E000230021A1807F
:10269000A37010BD70B50180C6888388B34228BF7F
:1026A000002110D2B0F90840B0F90A50C91A2A1B0B
:1026B0005143F61A91FBF6F16118A142B8BF2146C9
:1026C0008D42B8BF2946418070BD20B582889142B5
:1026D00003D34FF6FF75AA4200D18180C288914290
:1026E00038BF1146C18020BD838840F6B83293427E
:1026F000BCBF03F57A738380C38840F2DD529342F6
:10270000A4BFA3F57A73C380704738B5FEF750FABB
:1027100000F088FF404C434DE56700206067694644
:102720000120C4F8800004F1740000F0F3FF28B128
:1027300000F087FFFEF755FA009832BD60892289C4
:1027400042EA0042D3172946022000F031FFB4F9D3
:102750000E00B4F90C20344900F01FF8E08AA28A78
:10276000324900F01AF8B4F91A00B4F918203049C7
:1027700000F013F8608C228C2E4900F00EF8B4F9AA
:102780002600B4F924202C4900F007F800F059FF86
:10279000FEF727FA4FF0FF3032BD42EA0042D3176E
:1027A000022000F005BF70B51B48427800241421B8
:1027B00000EB420501FB04F300EB44062B44358E8D
:1027C0001D87641C032CF3DB521CD3B20A2BA8BF59
:1027D0000022427000220023002401FB02F5054480
:1027E00005EB4406641C358FEB180A2CF5DB0A2434
:1027F000B3FBF4F400EB4203521C032A1C85EADB12
:1028000070BD000014380008B02300200000002034
:1028100000080140BC230020502100203823002064
:10282000000C014000FC000804FC000808FC000843
:102830000CFC000810FC000814FC00084018491C9F
:102840001CBFB1F1010100F8012DF9D17047000062
:102850002DE9FC410646354D3178C80750D5A969A8
:102860000024C80009D4A96941F08051A96101245C
:10287000A86900F08050009000982D4F3868C1057D
:1028800011D4386840F480703860FFF753F98046FF
:102890003868C10507D4FFF74DF9A0EB080065289B
:1028A000F6D303203FE0E86910F440701EBF716862
:1028B00001F44071884218D01E49E86901220A607B
:1028C000002320F440700B60E861C0070DD5FFF7CE
:1028D00031F90746E969880707D4FFF72BF9C01BD0
:1028E00041F289318842F5D3DBE7EA69706822F466
:1028F00040720243EA611CB1A86920F08050A861CF
:102900003178880705D52968B06821F44041014332
:1029100029603178C80605D52968F06821F480015E
:10292000014329600020BDE8F68100000410024048
:102930000070004040044242024A51681078411839
:10294000516070474000002080B51048026842F096
:1029500001020260016801F001010091009A4168E2
:1029600041F0805141600022406800F080500090AA
:102970000F21009B6FF00100FFF779FA044A1068FD
:10298000022161F31A60106001BD00BF18100240FF
:10299000040001402DE9F84F002700246B4BDFF8BD
:1029A000B081DFF8B091DFF8B0B14FF00F0A024606
:1029B00010E0D3F800E000EA0E00186009E0C3F868
:1029C00004C04D68ED03F4D518684EEA000EC3F854
:1029D00000E07F1C0D6835FA07F000F0AB800120A5
:1029E00000FA07FC0CEA050EE645F2D14D683DB34E
:1029F000012D1AD0022D1DD0032D2ED0112D16D051
:102A0000122D1AD0554885421CBF5548854217D013
:102A1000544885421CBF5448854211D053488542D2
:102A20001CBF534885420BD018E0CC6816E0CC6838
:102A3000241D13E0CC68083410E0CC680C340DE0A1
:102A4000886808B9042409E0012819BF0824C2F8DD
:102A500014C00824C2F810C000E00024BEF5807F36
:102A600003D210464FEA870C04E0A7F10805101DB9
:102A70004FEA850C06680AFA0CF5AE4304FA0CF529
:102A800045EA060CC0F800C04868C000A1D5D9F8D6
:102A900000C04CF0010CC9F800C0BD00D9F800001E
:102AA00000F00100009005F00C0C0098B80858F8F0
:102AB00020600AFA0CF5AE435A4508BF00250ED037
:102AC0002C4DAA4208BF012509D02B4DAA4208BFB0
:102AD000022504D0294DAA420CBF0325042505FA7E
:102AE0000CF545EA060C48F820C06FEA0E004D6868
:102AF000ED0204D59D684EEA05059D6005E0D3F81A
:102B000008C000EA0C0CC3F808C04D68D3F80CC02C
:102B1000AD024CBF4EEA0C0C00EA0C0CC3F80CC022
:102B20004D68D3F804C0AD034CBF4EEA0C0C00EA6C
:102B30000C0C44E7BDE8F18F8068084018BF012005
:102B4000C0B2704702B90904016170470004014036
:102B50000800014018100240000801400000111058
:102B6000000012100000211000002210000031109F
:102B700000003210000C0140001001400014014020
:102B8000F8B5044600270026002C71D004F1240576
:102B9000686828B90021A96028702046FFF7CFFA9D
:102BA000204600F0DBF96968CA065DD401005BD1FC
:102BB000696821F4885141F0020169606368E26943
:102BC000217B1A43A36842EA4102B3F5807F14BF18
:102BD000012B4FF48077237D012B0FD131B9A169EF
:102BE000491E47EA413747F4006707E0696841F04A
:102BF00020016960A96841F00101A9602368596852
:102C000021F469410F435F60DFF82C132768BB682C
:102C10000B401343BB60A168B1F5807F18BF012949
:102C200002D12669761E36052368D96A21F470011F
:102C30000E43DE622468DFF80413A3680B4093425E
:102C400007D10022AA600122696862F3010169606C
:102C5000F2BD686820F0020040F010006860A868CB
:102C600040F00100A86003E0686840F01000686070
:102C70000120F2BD2DE9F04706460C463068DFF82A
:102C8000D012DFF8C852DFF8C0929246884218BFCF
:102C9000484503D1286810F4702F65D106F1240748
:102CA0003878012808BF022061D0012038703046F2
:102CB00000F00CF90028804653D17968DFF88402CF
:102CC000014041F48071796001213068484516D196
:102CD0002A6812F4702F12D0786840F4801078605F
:102CE0002A68500503D5786861F30D3078607868FC
:102CF000C10446BFB86820F00600002006E07A68EC
:102D000022F480127A6040684205EBE7B860002147
:102D1000224639705346346A0FF29120A062316A1C
:102D20000FF2D120C8626FF00201346A0FF2CD2099
:102D30002063306801603068816841F4807181608F
:102D4000306800F14C01306A00F097F9306800F00B
:102D500010F881680CBF41F4A00141F4801181603A
:102D600004E00020387001E04FF001084046BDE863
:102D7000F087816801F46021B1F5602F704738B5A4
:102D8000054605F124042078012801D1022032BD36
:102D900001202070284600F0E1F8010016D12A68D1
:102DA000916821F480719160296A91F82120022AAA
:102DB0000CD1084600F0A5F90100616806BF21F4B6
:102DC000885141F0010141F0400161600021217012
:102DD00032BDF8B5002300930A4600F12403002118
:102DE0001C78012C01D10220F2BD01241C701F2689
:102DF000576814680568072F08D27F1E07EB8707FE
:102E0000D5F834C000F05CF86C6316E00D2F08D2E2
:102E1000FF1F07EB8707D5F830C000F051F82C638F
:102E20000BE00D3F07EB870CEF6A06FA0CF627EA7A
:102E3000060604FA0CF43443EC620726176894681B
:102E400005680A2F08D30A3F07EB4707D5F80CC0DF
:102E500000F036F8EC6006E007EB4707D5F810C045
:102E600000F02EF82C611468102C18BF112C23D1FF
:102E70000068374DA8421AD13648046825021BD491
:102E8000046844F4000404601068102814D12C4D28
:102E9000314A2C68B4FBF2F20A20424300920098B7
:102EA00000281EBF0098401E0090F8D104E00121C8
:102EB000586840F020005860002018700846F2BDA5
:102EC000BE402CEA0606BC403443704738B5044681
:102ED0000020009020688168CA072BD48168184AB6
:102EE00041F0010181601C481168B1FBF0F001E084
:102EF0000098401E009000980028F9D1FEF71AFEB5
:102F0000054600F04FF815D4FEF714FE401B0328C9
:102F1000F7D300F047F8F4D404F12400416841F0FD
:102F2000100141600021826842F00102826001705C
:102F3000012032BD002032BDFDF7E1FFFE0E1FFF74
:102F40004C000020FEF1FFFF002801400424014056
:102F5000002401400824014040420F0038B50446D7
:102F600020688168CA071BD58168490849008160CB
:102F7000FEF7E0FD054600F015F811D5FEF7DAFD85
:102F8000401B0328F7D300F00DF8F4D5A16A41F0F7
:102F90001001A162E06A40F00100E062012032BD50
:102FA000002032BD20688168C8077047416A8A6A7C
:102FB00012F0500F1BD1886A40F4007088620A68D2
:102FC000906800F46020B0F5602F04BF087B0028F3
:102FD0000AD1886A20F480708862886AC20403D4A7
:102FE000886A40F001008862084600F0FFBB0A6A68
:102FF000116B0847406A00F0FABB0000406A816A22
:1030000041F040018162C16A41F00401C16200F0F7
:10301000EFBB000030B508B9012030BD0268DFF811
:1030200068128A18142400F13803B2FBF4F4A400E7
:10303000DFF858129C605960022280F82120016854
:103040000C684168826805686FF30D140C43C16811
:10305000144302690C434169144382690C43C169FA
:1030600014430C432C6000221A600123FFE780F810
:10307000213080F82020002030BDF8B500F034F871
:1030800001D10220F2BD00F035F822D1022004F176
:103090002C0684F821000027F7602768386840086C
:1030A00040003860204600F001F92168306820B106
:1030B0000A6842F00E020A6008E0086820F0040086
:1030C00008602068016841F00A01016000F006F81C
:1030D00002E084F8205002252846F2BD21680868E5
:1030E00040F00100086070470446002594F8200075
:1030F00001287047012084F8200094F82160012EF7
:10310000704790F82130022B00F1380206D00421DC
:103110001160002280F820200120704701680B68B0
:1031200023F00E030B600368196849084900196011
:103130000123916852688B4053600021012380F87D
:10314000213080F82010002070472DE9F84F00F161
:10315000280204265169544D0F680168DFF844A124
:103160000B689469DFF838B1DFF830C1DFF828E187
:10317000DFF82081DFF81891A64037422DD05E0796
:103180002BD50B689C0603D40B6823F004030B605B
:103190000168494508BF042118D0414508BF4021B6
:1031A00014D0714508BF4FF480610FD0614508BF4E
:1031B0004FF480410AD0594508BF4FF4802105D013
:1031C00051450CBF4FF480014FF080612960516878
:1031D000002956D0BDE8F44F08470226A6403742E2
:1031E00032D09E0730D50B689C0606D40B6823F0BE
:1031F0000A030B60012180F821100168494508BFCE
:10320000022118D0414508BF202114D0714508BFC4
:103210004FF400710FD0614508BF4FF400510AD040
:10322000594508BF4FF4003105D051450CBF4FF44C
:1032300000114FF000712960002180F82010116802
:10324000F9B1BDE8F44F0847082505FA04F4274210
:1032500017D01B0715D50C6824F00E040C60012351
:10326000916954698B40636001211161012380F8E9
:103270002130002180F82010916811B1BDE8F44F91
:103280000847BDE8F18F0000F8FFFDBF00000240D5
:10329000080002401C00024030000240440002408E
:1032A000580002406C0002400400024070B5046CFB
:1032B000C66B0125A54075600468636040681028EE
:1032C00002D1A260E16070BDA160E26070BD38B55E
:1032D000040001D1012032BD20684CF6CC430360CC
:1032E00045F25551016062684260A1688160FEF755
:1032F00021FC05462068C16811F0030F0DD0FEF7D0
:1033000019FC401B41F23D318842F3D32268D0685A
:1033100010F0030FEED0032032BD4AF6AA2101605F
:10332000002032BD00684AF6AA21016000207047E3
:1033300038B5040032D094F8200010B92046FEF7CA
:1033400078FF2068016841F001010160FEF7F2FB9F
:10335000054620684168C80707D4FEF7EBFB401B11
:103360000B28F6D300F070F818E0226810681146B8
:1033700020F002000860FEF7DDFB0546206841688A
:1033800088070DD5FEF7D6FB401B0B28F6D3606AE5
:1033900040F400306062052184F82010012032BD25
:1033A0002268207E116801280CBF41F0800121F0C5
:1033B000800110460160617E2068012901680CBF10
:1033C00041F0400121F040010160A07E012805D1BB
:1033D0002068016841F02001016004E0216808686C
:1033E00020F020000860E07E2168012808680CBFFA
:1033F00020F0100040F0100008602168207F0128B4
:1034000008680CBF40F0080020F008000860216840
:10341000607F012808680CBF40F0040020F0040021
:103420000860A268E0682169024360690A43616834
:1034300002432068491E0A43C261002161620120E3
:1034400084F82000002032BD616A41F400316162DD
:10345000052084F820007047F8B5040022D004F15C
:103460003C05697821B9002028702046FEF739FF15
:1034700024216970DFF8147100F094F82068016865
:1034800041F4004101602168086820F400400860B0
:10349000FEF708FB6268BA42014605D2DFF8F00089
:1034A000814205D20120F2BDDFF8E8008142F9D364
:1034B0002368DFF8E4205868B1FBF2F2800942EAA1
:1034C0008010586023681E6A6068B84206D34FF4C3
:1034D000967042434FF47A70B2FBF0F2521CB60978
:1034E00042EA86121A62491E2268D3696668BE42A1
:1034F00006D2760000F044F8042913D2042111E02A
:10350000A06820B906EB460600F03AF805E019205D
:10351000464300F035F841F4804108050CBF012115
:1035200041F40041DFF8740003400B43D36123688A
:103530001A68E069216A22F0C00202430A431A6055
:103540002368DFF85C009A6821690240E0680A435A
:1035500002439A602268D368A06961691B0A40EA45
:1035600003230B43D36020212068026842F001024C
:10357000026000206860697020630021A970F2BDBC
:10358000B1FBF6F1491CC1F30B017047A1860100A4
:1035900080841E0000093D0040420F000030FFFF04
:1035A000007CFFFF21680868400840000860704701
:1035B0002DE9F84F514F0646387E8B469046994686
:1035C000012808BF02202BD0012038764CF2503A57
:1035D000504600F048F8010020D1012E08BF012517
:1035E00003D0022E0CBF022504250024444E00E027
:1035F000641CAC4212DA40464946220100F0FAF857
:1036000081B20BEB440000F024F8504600F02BF898
:1036100032685208520001003260E9D000223A7646
:10362000BDE8F28F10B53849CA680020140607D5E6
:10363000364B374A0B600A60CC68210648BF012030
:1036400010BD2F49086840F08000FFE708600020A7
:1036500070472A4A0023D361294A136843F00103C3
:1036600013600180704770B50446FEF763FA0646A2
:10367000244D2968C8070AD514F1010FF9D024B1E7
:10368000FEF758FA801B8442F3D2032070BD2868ED
:10369000810644BF202028602968C80605D429690E
:1036A000C80702D42968480703D500F004F80120B0
:1036B00070BD002070BD10B5124910480C68002282
:1036C000E30604D5C26942F00202C26110220B680F
:1036D0005C0705D5C36943F00103C36142F00402EE
:1036E0000B69DC0707D5C36943F00403C3610869AC
:1036F0004008400008610A6010BD000090230020CF
:10370000102002400C2002400420024023016745A3
:10371000AB89EFCD2DE9F047DFF8C8500746287E8A
:1037200001248946012808BF022039D02C764CF2AA
:1037300050383868DFF8B060022840460DD1FFF7F6
:1037400092FF50BB012000F030F800F02BF8044647
:10375000306820F0040030601FE0FFF784FFE0B91C
:103760004FF0FF30C9F80000D7F808A001E00AF5D3
:10377000806AF968B86800EB812082450DD2504616
:1037800000F020F800F00EF83168044621F0020144
:1037900020003160EBD0C9F800A000212976204636
:1037A000BDE8F0874046FFF75EBF0E480021C161CB
:1037B0000D48026842F004020260016841F04001D5
:1037C0000160704707490022CA6107490A6842F050
:1037D00002020A604860086840F0400008607047D4
:1037E0000000000090230020102002407047704726
:1037F00070470000D2B2203A22BF21FA02F0002125
:1038000070472032D141D04048409140D14048409B
:1038100070470000A8390008000000000000000008
:103820000000000000000000000800001800000078
:103830000000000000000000C8390008000000007F
:103840000000000000000000000000000008000070
:10385000150000000000000000000000D43900083E
:103860000000000000000000000000000000000058
:10387000000200001B00000000000000000000002B
:1038800030B4002412E050F8043BDA0744BF4B4444
:103890005B1E091F042943F8044BFAD21A468D0710
:1038A00044BF1C80921CCB0748BF147050F8041B07
:1038B0000029E8D130BC7047FEE7FEE7FEE7FEE7EF
:1038C000FEE770470448FFF740BC0448FFF73DBCE3
:1038D0000348FEF7DFB9000070220020B422002068
:1038E0002822002010B5034A7A440832024C7C4456
:1038F000A41D03E01C0000003800000004E0116873
:10390000101D114488470246A242F8D110BD0000A4
:1039100071FFFFFF7C23000050000020000000002A
:10392000A7D1FFFF6001000074000000000000202C
:1039300000F00DF8002801D0FFF7D4FFAFF30080AE
:103940000020AFF30080FEF7C9FA00F002F8012072
:10395000704700F001B800000746384600F002F852
:10396000FBE7000080B5AFF30080024A1100182089
:10397000ABBEFBE7260002000548014603B46846DB
:1039800080F30988AFF30080AFF30080FFF7D0FF2A
:10399000A5EDF5FE704700000000000000000000EB
:1039A000010203040607080950726F647563745FAF
:1039B00049444C4500000000014880470148004749
:1039C00095390008793900084C65645F7461736B40
:1039D00000000000426C796E6B00000000000000E7
:1039E00001020304FFF7FEBFFFF7FEBFFFF7FEBFB4
:1039F000FFF7FEBFFFF7FEBFFFF7FEBFFFF7FEBFFB
:103A0000FFF7FEBFFFF7FEBFFFF7FEBFFFF7FEBFEA
:103A1000FFF7FEBFFFF7FEBFFFF7FEBFFFF7FEBFDA
:103A2000FFF7FEBFFFF7FEBFFFF7FEBFFFF7FEBFCA
:103A3000FFF7FEBFFFF7FEBFFFF7FEBFFFF7FEBFBA
:103A4000FFF7FEBFFFF7FEBFFFF7FEBFFFF7FEBFAA
:103A5000FFF7FEBFFFF7FEBFFFF7FEBFFFF7FEBF9A
:103A6000FFF7FEBFFFF7FEBFFFF7FEBFFFF7FEBF8A
:103A7000FFF7FEBFFFF7FEBFFFF7FEBFFFF7FEBF7A
:103A8000FFF7FEBF0301010001FC0003010100017B
:103A9000FC000301010001F8000301010001FC002A
:103AA0000301010001FC000301010001F800FCAA70
:0E3AB000FC000001F9000010FC0002127A0078
:04000005080039793D
:00000001FF
